:020000040800F2
:100000004007002025050008090500080B05000829
:100010000F05000813050008170500080000000080
:100020000000000000000000000000001B050008A8
:100030001D050008000000001F050008210500083C
:100040003F0500083F0500083F0500083F05000880
:100050003F0500083F0500083F0500083F05000870
:100060003F0500083F0500083F0500083F05000860
:100070003F0500083F0500083F0500083F05000850
:100080003F0500083F0500083F0500083F05000840
:100090003F0500083F0500083F0500083F05000830
:1000A0003F050008532100083F0500083F050008F0
:1000B0003F0500083F0500083F0500083F05000810
:1000C0003F0500083F0500083F0500083F05000800
:1000D0003F050008293E00083F0500083F050008CD
:1000E0003F0500083F0500083F05000800F002F842
:1000F00000F03AF80AA090E8000C82448344AAF188
:100100000107DA4501D100F02FF8AFF2090EBAE885
:100110000F0013F0010F18BFFB1A43F0010318473B
:100120002849000048490000103A24BF78C878C127
:10013000FAD8520724BF30C830C144BF04680C60ED
:10014000704700000023002400250026103A28BF35
:1001500078C1FBD8520728BF30C148BF0B60704739
:100160001FB51FBD10B510BD03F0CBFE1146FFF744
:10017000F7FF00F009F803F0E9FE03B4FFF7F2FF20
:1001800003BC03F0EDFE000001F0ECFE01F054FFB3
:1001900001F075FF03F060FE02F0EFFA02F048FB99
:1001A00002F0C8FE4FF4E13003F0E0FD002141F61B
:1001B0001F4002F053F800214FF6FF7002F093F851
:1001C00000214FF6FF7002F0C9F840F2CF2140F253
:1001D000F31001F071FF02F0C8F996E003F04FFE52
:1001E00001234A4808210268184602F028FA4748C5
:1001F0000068012819D146480078312808D14FF409
:100200000041444800F029FB01E002F0E7FEFCE772
:100210003F480078322808D14FF480413D4800F033
:100220001CFB01E002F0CEFFFCE738480068022822
:100230001DD137480078332819DB35480078382835
:1002400015DC4FF48041334800F007FB0EE003F06B
:10025000C2F82F480078312803D02D480078322882
:1002600004D14FF400412B4800F0F7FAEFE727489C
:10027000006803281DD126480078332819DB24485C
:100280000078382815DC4FF48041224800F0E5FA68
:100290000EE003F04AFA1E480078312803D01C48CB
:1002A0000078322804D14FF400411A4800F0D5FA02
:1002B000EFE71948006803F0C9FE0446052322460B
:1002C0000121084602F0DDF91448006803F0BEFE83
:1002D0000446052322460121022002F0D2F91048EB
:1002E000006803F0B3FE04460423224601210320E4
:1002F00002F0C7F90B48006803F0A8FE0446042387
:1003000022460121184602F0BCF967E700000020F0
:10031000DC000020001001401C0000202000002014
:10032000080000200C0000200CB500200190009077
:100330006C48006840F480306A49086000BF694832
:10034000006800F4003000900198401C0190009873
:1003500018B90198B0F5A06FF1D16248006800F4B7
:10036000003010B10120009001E0002000900098C2
:10037000012843D15C48006840F010005A490860E9
:100380000846006820F0030008600846006840F056
:100390000200086053484068524948600846406877
:1003A00048600846406840F48060486008464068FD
:1003B00020F47C1048600846406840F4E81048602B
:1003C0000846006840F08070086000BF454800683B
:1003D00000F000700028F9D04248406820F0030087
:1003E000404948600846406840F00200486000BF4D
:1003F0003C48406800F00C000828F9D10CBD10B54D
:10040000FFF792FF10BD10B53648006840F00100BC
:10041000344908600846406834490840314948601A
:1004200008460068324908402E49086008460068BE
:1004300020F4802008600846406820F4FE004860F0
:100440004FF41F008860FFF7DAFF4FF00060294982
:10045000086010BD10B5002100200022214B5B6810
:1004600003F00C0121B1042906D0082928D107E0A6
:10047000214B224C236027E01F4B204C236023E0BC
:10048000184B5B6803F47010164B5B6803F4803202
:10049000022303EB904022B9194B4343174C2360CE
:1004A0000DE0104B5B6803F4003323B1144B43435E
:1004B000124C236003E0104B4343104C236003E0D5
:1004C0000D4B0E4C236000BF00BF064B5B68C3F3AF
:1004D00003130C4CE15C094B1B68CB40074C2360B9
:1004E00010BD000000100240002002400000FFF894
:1004F000FFFFF6FE08ED00E000127A002400002065
:1005000000093D0028000020704700BFFEE700BF43
:10051000FEE700BFFEE700BFFEE770477047704789
:10052000704700000948804709480047FEE7FEE79A
:10053000FEE7FEE7FEE7FEE7FEE7FEE7FEE7FEE793
:1005400004480549054A064B7047000007040008A7
:10055000ED0000084001002040070020400300207B
:100560004003002031490143314A1160704770B5A2
:10057000002100230F22C47804B32D4C246804F416
:10058000E064C4F5E064210AC1F10403CA40447880
:1005900004FA03F18478144021430901254C0678BC
:1005A000A155047804F01F050124AC4005786D11B5
:1005B000AD0005F1E025C5F8004109E0047804F03C
:1005C0001F050124AC401C4D0678761145F82640E5
:1005D00070BD1A4A0A400243154B1B1F1A60704730
:1005E00039B1134A121D12680243114B1B1D1A60C8
:1005F00006E00F4A121D126882430D4B1B1D1A6044
:100600007047042808D14FF0E021096941F0040146
:100610004FF0E022116107E04FF0E021096921F07D
:1006200004014FF0E0221161704700000000FA055C
:100630000CED00E000E400E080E100E080FFFF1F3F
:1006400010B50446CC48844208D10121042000F0B2
:100650002DFB0021042000F029FB46E0C74884421E
:1006600008D10121082000F021FB0021082000F022
:100670001DFB3AE0C248844208D10121102000F05D
:1006800015FB0021102000F011FB2EE0BD48844234
:1006900008D10121202000F009FB0021202000F0DA
:1006A00005FB22E0B848844208D10121402000F037
:1006B000FDFA0021402000F0F9FA16E0B348844228
:1006C00008D10121802000F0F1FA0021802000F003
:1006D000EDFA0AE0AE48844207D10121801500F00E
:1006E000E5FA0021A01500F0E1FA10BD10B50121D6
:1006F000084600F0DBFA0021012000F0D7FA10BD17
:100700002DE9F041024600250026002000230024A8
:10071000002791F803C00CF00F0591F803C00CF00E
:10072000100CBCF1000F03D091F802C04CEA050593
:1007300091F800C0BCF1000F31D0146800202BE00C
:100740004FF0010C0CFA00F3B1F800C00CEA0306FC
:100750009E4220D183004FF00F0C0CFA03F7BC43EC
:1007600005FA03FC4CEA040491F803C0BCF1280F1D
:1007700006D14FF0010C0CFA00FCC2F814C00AE0DC
:1007800091F803C0BCF1480F05D14FF0010C0CFAF1
:1007900000FCC2F810C0401C0828D1D31460B1F886
:1007A00000C0BCF1FF0F34DD546800202EE000F1E2
:1007B000080C4FF0010808FA0CF3B1F800C00CEA7D
:1007C00003069E4221D183004FF00F0C0CFA03F771
:1007D000BC4305FA03FC4CEA040491F803C0BCF1E5
:1007E000280F05D100F1080C08FA0CF8C2F81480A3
:1007F00091F803C0BCF1480F07D100F1080C4FF08D
:10080000010808FA0CF8C2F81080401C0828CED362
:100810005460BDE8F0814FF6FF71018002218170C4
:100820000421C17070470246002093680B400BB151
:10083000012000E0002070470146886880B27047C0
:1008400002460020D3680B400BB1012000E00020DD
:1008500070470146C86880B27047016170474161C6
:1008600070470AB1016100E041617047C1607047A3
:100870004FF480320A4382618161826182698269B8
:10088000704702460020434B18684FF680731840AB
:1008900040EA021008433F4B186070473E49C86168
:1008A0007047F0B50A46002300240021002500F01F
:1008B0000046B6F1004F02D1364EF16901E0354EE7
:1008C0007168C0F3034583B200F44016B6F5401FCB
:1008D00008D121F070612F4E766826F070662D4F9A
:1008E0007E6012E000F48016B6F5801F06D1032664
:1008F00006FA05F4A14341F0706106E0460D3601A9
:1009000003FA06F6B14341F0706122B1460D36019B
:1009100003FA06F6314300F00046B6F1004F02D16B
:100920001C4EF16101E01B4E7160F0BD30B500223C
:100930008B071C0F0F2303FA04F2164B08338C109D
:1009400053F824309343134C08348D1044F8253069
:1009500023468C1053F824308C07240F00FA04F43B
:1009600023430C4C08348D1044F8253030BD0A491F
:10097000DC3108607047000000080140000C0140B5
:10098000001001400014014000180140001C01400B
:10099000002001400000014000002042DF480068C4
:1009A00040F00100DD49086008464068DC49084025
:1009B000DA49486008460068DA490840D7490860C3
:1009C0000846006820F4802008600846406820F44B
:1009D000FE0048604FF41F0088607047CF490968E7
:1009E00021F48031CD4A11601146096821F480213B
:1009F0001160B0F5803F03D0B0F5802F0ED106E036
:100A0000C649096841F48031C44A116007E0C3490E
:100A1000096841F4A021C14A116000E000BF00BF95
:100A2000704710B501460022002300204A11012A18
:100A300002D1BA4C236806E0022A02D1B74C236ADD
:100A400001E0B64C636A01F01F02012494401C408F
:100A50000CB1012000E0002010BD38B5002000904E
:100A60000024002500BF3120FFF7DBFF054600987A
:100A7000401C00900098B0F5A06F01D0002DF2D07E
:100A80003120FFF7CEFF08B1012400E0002420460A
:100A900038BD01460020A14A106820F0F80040EA65
:100AA000C10010607047A0490860704702460020EE
:100AB0009A4B586820F47C1042EA01031843974B84
:100AC0005860704798490866704701460020934A6D
:100AD000506820F003000843506070478F4840681A
:100AE00000F00C007047014600208C4A506820F04E
:100AF000F00008435060704701460020874A506864
:100B000020F4E06008435060704701460020834AAB
:100B1000506820F4605040EAC1005060704729B12D
:100B20007E4A527A02437D4B5A7204E07B4A527AE3
:100B300082437A4B5A7270477B49D83108607047BC
:100B400001460020754A506820F440400843506038
:100B500070470021714A20321170704A82F82010CB
:100B6000012802D004280AD104E001216B4A203276
:100B7000117005E00521694A2032117000E000BFC4
:100B800000BF70476949086070476449096A0143BA
:100B9000624A11627047654944390860704730B550
:100BA00000210022002400235C4D6D6805F00C013B
:100BB00021B1042905D0082923D105E05C4D056049
:100BC00022E05B4D05601FE0544D6D6805F4701226
:100BD000524D6D6805F48034022505EB92421CB934
:100BE000544D554305600BE04C4D6D6805F40035E0
:100BF0001DB1504D5543056002E04D4D5543056014
:100C000002E04B4D056000BF00BF444D6D6805F02C
:100C1000F0010909484D6B5C0568DD4045603F4DBA
:100C20006D6805F4E061090A434D6B5C4568DD4081
:100C300085603A4D6D6805F46051C90A3E4D6B5CA4
:100C40004568DD40C560354D6D6805F44041890B50
:100C50003A4D6B5CC568B5FBF3F5056130BD29B154
:100C60002E4A526902432D4B5A6104E02B4A5269C5
:100C700082432A4B5A61704729B1284A926902433C
:100C8000264B9A6104E0254A92698243234B9A617C
:100C9000704729B1214AD2690243204BDA6104E04E
:100CA0001E4AD26982431D4BDA61704729B11B4A43
:100CB000D2680243194BDA6004E0184AD2688243D2
:100CC000164BDA60704729B1144A12690243134B7C
:100CD0001A6104E0114A12698243104B1A6170478D
:100CE00012494039086070470F49C86470470B4982
:100CF000C87170470948406A40F0807007494862EF
:100D0000704701460020054A92680A400AB1012056
:100D100000E00020704701498872704700100240CF
:100D20000000FFF8FFFFF6FE00004242800442424E
:100D300000127A0000093D00380000204800002021
:100D400010B50446FE48844208D10121C014FFF7C3
:100D5000ADFF0021E014FFF7A9FFC4E0B4F1804F1C
:100D600008D101210846FFF7AEFF00210120FFF75F
:100D7000AAFFB8E0F348844208D101210220FFF71E
:100D8000A2FF00210220FFF79EFFACE0EE48844264
:100D900008D101210420FFF796FF00210420FFF76E
:100DA00092FFA0E0E948844208D101210820FFF722
:100DB0008AFF00210820FFF786FF94E0E448844280
:100DC00008D101211020FFF77EFF00211020FFF73E
:100DD0007AFF88E0DF48844208D101212020FFF714
:100DE00072FF00212020FFF76EFF7CE0DA4884428A
:100DF00008D101214014FFF759FF00216014FFF7CB
:100E000055FF70E0D548844209D10121C804FFF79D
:100E10004DFF00214FF40020FFF748FF63E0D0486A
:100E2000844209D101210805FFF740FF00214FF45A
:100E30008010FFF73BFF56E0CA48844209D10121E8
:100E40004805FFF733FF00214FF40010FFF72EFF96
:100E500049E0C548844208D101214020FFF733FF13
:100E600000214020FFF72FFF3DE0C048844208D119
:100E700001218020FFF727FF00218020FFF723FFBB
:100E800031E0BB48844208D101218015FFF71BFFE8
:100E90000021A015FFF717FF25E0B648844209D1CD
:100EA00001210804FFF702FF00214FF48030FFF713
:100EB000FDFE18E0B048844209D101214804FFF743
:100EC000F5FE00214FF40030FFF7F0FE0BE0AB48D9
:100ED000844208D101218804FFF7E8FE00214FF485
:100EE0008020FFF7E3FE10BD00220288944B984259
:100EF0000ED0994B98420BD0B0F1804F08D0914B57
:100F0000984205D0904B984202D0904B984204D121
:100F10004FF68F731A404B881A438D4B984207D077
:100F20008C4B984204D04FF6FF431A40CB881A43AB
:100F300002808B8883850B880385814B98420BD078
:100F4000854B984208D08B4B984205D08A4B9842EB
:100F500002D08A4B984201D10B7A03860123838207
:100F6000704770B5002400220023058C4FF6FE76F2
:100F700035400584028C8388048B4FF68F752C4096
:100F8000B51E2C400D882C43751E2A400D892A431E
:100F90004D882A436A4DA8420BD06F4DA84208D015
:100FA000744DA84205D0744DA84202D0734DA8429A
:100FB00013D14FF6F7752A404D892A434FF6FB753A
:100FC0002A408D882A434FF6FF652B404FF6FF5588
:100FD0002B408D892B43CD892B4383800483CD887F
:100FE0008586028470BD70B5002400220023058C24
:100FF0004FF6EF7635400584028C8388048B48F6E3
:10100000FF752C404FF6FF452C400D884FF6FF76BC
:1010100006EA05252C434FF6DF752A400D8906EABE
:1010200005152A434D8806EA05152A43444DA84272
:1010300002D0494DA8421DD14FF67F752A404D89F7
:101040004FF6FF7606EA05152A434FF6BF752A408C
:101050008D8806EA05152A434FF6FF352B404FF2DF
:10106000FF752B408D8906EA85052B43CD8906EA5D
:1010700085052B4383800483CD880587028470BD5A
:1010800070B5002400220023058C4FF6FF66354022
:101090000584028C8388848B4FF68F752C404FF625
:1010A000FC752C400D882C434FF6FF552A400D89C6
:1010B0004FF6FF7606EA05252A434D8806EA052500
:1010C0002A431F4DA84202D0234DA8421DD14FF202
:1010D000FF752A404D894FF6FF7606EA05252A431B
:1010E0004FF6FF352A408D8806EA05252A434EF63D
:1010F000FF752B404DF6FF752B408D8906EA0515CF
:101100002B43CD8906EA05152B4383808483CD8844
:101110008587028470BD70B5002200230024058CF1
:101120004EF6FF7635400584038C8488828B48F622
:10113000FF752A404FF6FF452A400D8820E0000049
:10114000002C01400004004000080040000C00405A
:10115000001000400014004000340140004C0140E9
:10116000005001400054014000180040001C0040A5
:101170000020004000400140004401400048014080
:101180004FF6FF7606EA05252A434DF6FF752B40FC
:101190000D8906EA05352B434D8806EA05352B43B4
:1011A000FA4DA84202D0FA4DA84208D14BF6FF757D
:1011B0002C408D894FF6FF7606EA85152C438480F6
:1011C0008283CD88A0F84050038470BD828B4FF29B
:1011D000FF331A408283828B4FF6FF7303EA0123A9
:1011E0001A4382837047F0B50C4615460022002151
:1011F0000026078C4EF6FF7C07EA0C070784828BDB
:10120000018C4FF6FF7707EA043640F6FF473A4075
:101210004FF6FF7707EA05273A434FF6FF7707EACD
:1012200003373A43D94FB8420ED0D94FB8420BD00A
:10123000B0F1804F08D0D74FB84205D0D64FB84252
:1012400002D0D64FB84206D14DF6FF77394046F46A
:101250008057394305E047F6FF57394044F480573B
:10126000394382830184F0BD828B4FF6F3731A40B9
:101270008283828B0A4382837047F0B50C46154601
:10128000002200210026078C4FF6FF6C07EA0C07AE
:101290000784828B018C4FF6FF7707EA04264FF60E
:1012A0000C773A404FF6FF7707EA03172F433A438C
:1012B000B64FB8420ED0B64FB8420BD0B0F1804F07
:1012C00008D0B44FB84205D0B34FB84202D0B34FA4
:1012D000B84206D14FF6FF57394046F4807739437C
:1012E00005E04FF2FF57394044F480773943828359
:1012F0000184F0BD028B4FF2FF331A400283028B50
:101300004FF6FF7303EA01231A4302837047F0B5D7
:101310000C461546002200210026078C4FF6EF7C74
:1013200007EA0C070784028B018C4FF6FF7707EA68
:10133000041640F6FF473A404FF6FF7707EA0337B7
:101340003A434FF6FF7707EA05273A438F4FB842F3
:101350000ED08F4FB8420BD0B0F1804F08D08D4FD8
:10136000B84205D08C4FB84202D08C4FB84206D15B
:101370004FF6DF77394046F01007394305E04FF666
:101380005F77394044F01007394302830184F0BD90
:10139000028B4FF6F3731A400283028B0A430283D7
:1013A0007047F0B50C46154600220021068C4FF61A
:1013B000FE773E400684028B018C4FF60C7632405D
:1013C0007E1C06EA03162E433243704EB0420ED006
:1013D0006F4EB0420BD0B0F1804F08D06D4EB0428E
:1013E00005D06D4EB04202D06C4EB04206D14FF6E1
:1013F000FD76314044F00106314305E04FF6F576C5
:10140000314044F00106314302830184F0BD70B5E0
:1014100005460C465D4885420ED05D4885420BD09E
:10142000B5F1804F08D05B48854205D05A488542C7
:1014300002D05A48854200D100E000BF208850B950
:101440002389A28861882846FFF7ABFFE1882846F8
:10145000FFF79EFF25E0208804280AD12389A2886F
:1014600061882846FFF753FFE1882846FFF742FFCF
:1014700017E0208808280AD12389A2886188284695
:10148000FFF7FBFEE1882846FFF7EEFE09E023891F
:10149000A28861882846FFF7A6FEE1882846FFF764
:1014A00095FE70BD2DE9F04105460C46002601274A
:1014B000608808B9022600E00026A088012801D132
:1014C000022700E001272088A0B92389A28861882B
:1014D0002846FFF766FFE1882846FFF759FF238972
:1014E0003A4631462846FFF712FFE1882846FFF7C3
:1014F00001FF13E02389A28861882846FFF707FFD0
:10150000E1882846FFF7F6FE23893A463146284609
:10151000FFF747FFE1882846FFF73AFFBDE8F08173
:101520000A884B881A438B881A43CB881A430B8945
:101530001A434B891A438B891A43A0F844207047F9
:101540004FF6FF71818000210180C18041800172CE
:1015500070470021018041808180C18001814181EB
:101560008181C181704700210180418001218180FA
:101570000021C1800181704700210180418081806C
:10158000C18001814181818170470000002C0140B0
:10159000003401400004004000080040000C0040FE
:1015A00021B1028842F00102028004E002884FF675
:1015B000FE731A400280704731B1B0F8442042F403
:1015C0000042A0F8442005E0B0F84420C2F30E0227
:1015D000A0F8442070471AB183890B43838102E04D
:1015E00083898B43838170478182704741EA02037C
:1015F000A0F8483070471AB183890B43838102E019
:1016000083898B438381704701894FF6F8721140BB
:10161000018170470A46002101894FF68F731940F6
:1016200011430181704730B504460D4629462046D6
:10163000FFF7F0FF208940F00700208130BD2DE941
:10164000F04104460D4616461F46602D06D13B4626
:10165000012231462046FFF75AFE05E03B460122B3
:1016600031462046FFF79DFE29462046FFF7D2FF70
:10167000208940F007002081BDE8F08130B50C469C
:1016800000210189C9B24FF6FF7505EA032515430C
:1016900025432943018130BD2DE9F04105460E4621
:1016A00017469846002443463A4631462846FFF7F7
:1016B000E5FF2C894FF6F870044044F007044FF61C
:1016C0008F70044044F070042C81BDE8F081F0B5C7
:1016D00004460D4616461F463B46324629462046DE
:1016E000FFF7CCFF208940F480402081F0BD0185C8
:1016F000828270470A46002101884FF68F73194095
:10170000114301807047F0B50C4615461E46002176
:10171000002200230189028B038C4FF6F8773940B1
:1017200021434FF6FC473A4040F201173A434FF647
:10173000DD773B404FF6FF7707EA06172F433B4321
:10174000018102830384F0BD0A460021018B4FF61C
:101750008F7319401143018370470A460021018BA2
:1017600048F6FF7319404FF6FF7303EA022319434B
:10177000018370470A460021818B4FF68F73194011
:101780001143818370470A460021818B48F6FF731D
:1017900019404FF6FF7303EA022319438183704710
:1017A00021B1028842F08002028004E002884FF6F4
:1017B0007F731A400280704721B1828842F0040290
:1017C000828004E082884FF6FB731A408280704763
:1017D00021B1828842F00802828004E082884FF6BC
:1017E000F7731A408280704721B1828842F001026B
:1017F000828004E082884FF6FE731A408280704730
:101800000A460021018B4FF6F773194011430183FB
:1018100070470A460021018B4FF2FF7319404FF6C3
:10182000FF7303EA02231943018370470A4600212C
:10183000818B4FF6F77319401143818370470A4635
:101840000021818B4FF2FF7319404FF6FF7303EABB
:1018500002231943818370470A460021018B4FF60A
:10186000FB7319401143018370470A460021018B25
:101870004FF6FF3319404FF6FF7303EA0223194373
:10188000018370470A460021818B4FF6FB73194094
:101890001143818370470A460021818B4FF6FF3345
:1018A00019404FF6FF7303EA0223194381837047FF
:1018B0000A460021018B4FF67F73194011430183C3
:1018C00070470A460021018BC1F30E014FF6FF73EA
:1018D00003EA02231943018370470A460021818BE2
:1018E0004FF67F7319401143818370470A460021E8
:1018F000818BC1F30E014FF6FF7303EA02231943F4
:10190000818370470A460021018C4FF6FD73194010
:101910001143018470470A460021018C4FF6F7738A
:1019200019401143018470470A460021018C4FF68B
:10193000DF7319404FF6FF7303EA02131943018462
:1019400070470A460021018C4FF67F7319404FF60D
:10195000FF7303EA02131943018470470A4600210A
:10196000018C4FF6FF5319404FF6FF7303EA022331
:101970001943018470470A460021018C4FF2FF731E
:1019800019404FF6FF7303EA02231943018470479D
:101990000A460021018C4DF6FF7319404FF6FF7384
:1019A00003EA023319430184704730B50023012450
:1019B0008C40A3B2048C9C430484048C02FA01F58D
:1019C000ADB22C43048430BD30B5002304248C40D8
:1019D000A3B2048C9C430484048C02FA01F5ADB2DA
:1019E0002C43048430BD70B5034600200024184603
:1019F000183001258D40ACB21D8CA5431D8409B162
:101A0000082909D100EB6100056825F07005056023
:101A10000568154305600EE00D1FC5F34E0528440B
:101A2000056825F4E045056005684FF6FF7606EA8F
:101A300002263543056070BD21B1028842F00202E2
:101A4000028004E002884FF6FD731A40028070475E
:101A500021B1028842F00402028004E002884FF6BD
:101A6000FB731A400280704721B1828842F08002E5
:101A7000828004E082884FF67F731A40828070472C
:101A800002884FF6F7731A40028002880A430280E8
:101A9000704782884FF68F731A40828082880A438B
:101AA0008280704702894FF6F8731A4002810289DA
:101AB0000A430281704702894FF67F731A40028100
:101AC00002890A430281704781847047818570478B
:101AD000818670470187704781877047A0F8401062
:101AE000704702884FF6FF431A40028002880A437B
:101AF000028070470146888E70470146088F704704
:101B00000146888F70470146B1F840007047014692
:101B1000888C70470146088D704702460020138A62
:101B20000B400BB1012000E000207047CA43028245
:101B3000704730B50246002000230024158A05EACC
:101B40000103958905EA010413B10CB1012000E0FD
:101B5000002030BDCA4302827047000010B5044621
:101B6000FB48844209D101218803FFF79FF8002137
:101B70004FF48040FFF79AF832E0F648844209D1EA
:101B800001214804FFF79FF800214FF40030FFF7D0
:101B90009AF825E0F048844209D101218804FFF732
:101BA00092F800214FF48020FFF78DF818E0EB4801
:101BB000844209D10121C804FFF785F800214FF4C0
:101BC0000020FFF780F80BE0E548844208D10121AE
:101BD0000805FFF778F800214FF48010FFF773F83D
:101BE00010BD2DE9F04786B005460E460024A246FA
:101BF00000BFA1460027B08900B100BF2F462C8A44
:101C00004CF6FF700440F08804432C82AC894EF6F9
:101C1000F3100440B08831890843718908430443B4
:101C2000AC81AC8A4FF6FF400440B0890443AC82DB
:101C300001A8FEF7B4FFC648874202D1DDF810A024
:101C400001E0DDF80CA0A88900F4004040B10AEBE7
:101C5000CA0000EB0A1031684900B0FBF1F807E058
:101C60000AEBCA0000EB0A1031688900B0FBF1F8FA
:101C70006420B8FBF0F004012009642101FB108905
:101C8000A88900F4004040B1322000EBC900B0FB4D
:101C9000F1F000F00700044308E0322000EB0910E7
:101CA0006421B0FBF1F000F00F0004432C8106B07A
:101CB000BDE8F0874FF41651016000218180C1809A
:101CC00001810C21418100218181704710B50246BC
:101CD0000020108A4FF2FF0318400B884C882343E2
:101CE0008C882343CC8823431843108210BD0021E5
:101CF000018041808180C180704721B1828942F496
:101D00000052828104E082894DF6FF731A4082817D
:101D10007047F0B50346002400260025002040F659
:101D20006A17B94200D100BF1846C1F3421401F04E
:101D30001F06012707FA06F5012C01D10C3004E03B
:101D4000022C01D1103000E014301AB107682F4383
:101D5000076002E00768AF430760F0BD1AB1838AED
:101D60000B43838202E0838A8B4383827047028A1B
:101D70004FF6F0731A400282028A0A4302827047C9
:101D800082894FF2FF731A40828182890A438281DD
:101D9000704721B1828942F00202828104E0828987
:101DA0004FF6FD731A4082817047028A4FF6DF7347
:101DB0001A400282028A0A430282704721B1028AD3
:101DC00042F48042028204E0028A4BF6FF731A401A
:101DD00002827047C1F308028280704701468888FA
:101DE000C0F308007047818941F00101818170478B
:101DF000028BD2B20283028B42EA01220283704735
:101E0000028B02F47F420283028B0A4302837047F3
:101E100021B1828A42F02002828204E0828A4FF657
:101E2000DF731A408282704721B1828A42F0100229
:101E3000828204E0828A4FF6EF731A4082827047F2
:101E400021B1828A42F00802828204E0828A4FF63F
:101E5000F7731A408282704721B1828942F40042AE
:101E6000828103E08289C2F30E028281704721B130
:101E7000828A42F40062828204E0828A4FF2FF7317
:101E80001A4082827047828A4FF6FB731A40828220
:101E9000828A0A438282704721B1828A42F002021A
:101EA000828204E0828A4FF6FD731A408282704774
:101EB00002460020B1F5007F00D100BF13880B401F
:101EC0000BB1012000E00020704701F40072B2F570
:101ED000007F00D100BFCA430280704770B5024640
:101EE000002400230025002040F66A16B14200D1EC
:101EF00000BFC1F3421501F01F03012606FA03F3E8
:101F0000012D02D19689334006E0022D02D1168AB6
:101F1000334001E0968A33400C12012606FA04F49D
:101F20001688344013B10CB1012000E0002070BDD0
:101F300010B50022002340F66A14A14200D100BF70
:101F40000A1201249440A3B2DC43048010BD0000B7
:101F5000003801400044004000480040004C004070
:101F60000050004010B56FF00400FEF74AFB2E4809
:101F700000682E49B0FBF1F02D4908700846007842
:101F800000EB4001C1EBC0104FF6FF7101EAC00049
:101F90002849088010BD0146254A12784A434FF06F
:101FA000E0235A6100229A611A46126942F0010246
:101FB0001A6100BF4FF0E022106900F001021AB16F
:101FC00000F48032002AF5D04FF0E022126922F0AE
:101FD00001024FF0E0231A6100229A617047014626
:101FE000144A12884A434FF0E0235A6100229A6152
:101FF0001A46126942F001021A6100BF4FF0E02256
:10200000106900F001021AB100F48032002AF5D004
:102010004FF0E022126922F001024FF0E0231A6132
:1020200000229A61704700002400002000127A000C
:102030004C0000204E00002008B501211020FEF7C2
:102040001BFE4FF46040ADF8000010208DF8030037
:1020500003208DF8020069461548FEF751FB4FF446
:1020600000511348FEF7F9FB4FF480411048FEF78A
:10207000F6FB4FF400410E48FEF7F1FB08BD08B532
:1020800001210820FEF7F8FD4FF48060ADF8000054
:1020900010208DF8030003208DF8020069460548E2
:1020A000FEF72EFB4FF400510248FEF7D6FB08BDA9
:1020B00000100140000C01407FB505460C4601218F
:1020C000C802FEF7D9FDADF80850ADF80440002075
:1020D000ADF80A00ADF806008DF80C0001A9BE4865
:1020E000FEF702FF0121BC48FFF720FD012241213C
:1020F000B948FFF770FA0121B748FFF751FA1920E4
:102100008DF8000000208DF8010003208DF80200FA
:1021100001208DF803006846FEF729FA7FBDAF491C
:102120000888B0F5704F02DBA0F57F40FF38002132
:10213000AA4A118070474FF08041888CB0F5704FEB
:1021400002DBA0F57F40FF3800214FF080429184F0
:10215000704770B50121A048FFF7EBFC002878D04C
:102160009F480068012808D100209D4908604FF46D
:1021700000519C48FEF771FB06E001209849086079
:1021800041039848FEF76BFB97480068401C96494E
:102190000860FFF7D0FF044601F094FF9349086000
:1021A000FFF7BDFF044601F08DFF9149086091489B
:1021B000006801F087FF05468C480168284601F059
:1021C000D7FE044601F042FF8A4908608A48006849
:1021D00001F078FF054686480168284601F0C8FEF0
:1021E000044601F033FF844908608048006880F0AD
:1021F00000458248006801F065FF0646294601F067
:10220000B7FE044601F022FF7C4908607848006868
:1022100080F000457A48006801F054FF06462946E0
:1022200001F0A6FE044601F011FF754908606F48F1
:10223000006801F00BFF044600F0AAFD7149086038
:102240006B48006801F002FF044600F0F1FD6E49A2
:10225000086001216048FFF77DFC70BD30B589B092
:1022600005460C4601210220FEF713FD01210C203A
:10227000FEF702FD0320ADF8200018208DF82300A2
:1022800003208DF8220008A96048FEF739FAADF85E
:102290001850ADF814400020ADF81A00ADF8160043
:1022A00005A95B48FEF720FE6020ADF80400012080
:1022B000ADF806000020ADF80C0001A95448FEF767
:1022C000DFFE01A95248FEF726FF08215048FFF71C
:1022D000ADFA08214E48FFF7B2FA01214C48FFF74A
:1022E0005FF909B030BD30B587B005460C46012115
:1022F0000846FEF7CEFC01210420FEF7BDFC0320BA
:10230000ADF8180004208DF81B0006A94148FEF71F
:10231000F7F9ADF81050ADF80C400020ADF8120000
:10232000ADF80E0003A94FF08040FEF7DDFD00235D
:102330001A4603214FF08040FFF7E5F96846FFF7A2
:1023400012F90A20ADF8080069464007FFF75FF868
:1023500001218807FFF724F907B030BD30B587B0F9
:1023600005460C4601210420FEF793FC01210820BC
:10237000FEF782FCC020ADF8180004208DF81B0089
:1023800006A92248FEF7BCF9ADF81050ADF80C4094
:102390000020ADF81200ADF80E0003A90F48243854
:1023A000FEF7A2FD00231A4603210C482438FFF74C
:1023B000AAF96846FFF7D7F80A20ADF80800694681
:1023C00006482438FFF723F8012104482438FFF792
:1023D000E7F807B030BD0000002C014024080040A1
:1023E0005000002000100140540000201C0000207C
:1023F00020000020B8000020BC0000205800002071
:102400005C000020080000200C000020000C0140AF
:10241000000400400008014008B501210820FEF733
:102420002BFC14208DF8030003208DF802004FF4DC
:102430008070ADF800006946FB48FEF761F94FF483
:102440000070ADF800006946F748FEF759F901221F
:102450001102F548FEF705FA01225102F248FEF793
:1024600000FA08BD10B501225102EF48FEF7F9F954
:1024700001221102EC48FEF7F4F900224FF400713A
:10248000E948FEF7EEF900224FF48071E648FEF7C6
:10249000E8F910BD10B500224FF40071E248FEF7D4
:1024A000E0F901221102E048FEF7DBF901225102B6
:1024B000DD48FEF7D6F910BD70B50546002415E0DD
:1024C0008020204100EA05024FF40071D648FEF753
:1024D000C8F901221102D448FEF7C3F900224FF4D3
:1024E0008071D148FEF7BDF9601CC4B2082CE7DB4F
:1024F00001221102CC48FEF7B4F900224FF480719A
:10250000C948FEF7AEF970BD10B50446FFF7AAFF43
:102510007820FFF7D1FF0020FFF7CEFF2046FFF71E
:10252000CBFFFFF7B7FF10BD10B50446FFF79AFFCA
:102530007820FFF7C1FF4020FFF7BEFF2046FFF7DE
:10254000BBFFFFF7A7FF10BD70B505460C4645F071
:10255000B000FFF7D9FF102141EA1410FFF7D4FFB4
:1025600004F00F00FFF7D0FF70BD70B500240EE03F
:1025700000212046FFF7E8FF002504E00020FFF7D8
:10258000D3FF681CC5B2802DF8DB601CC4B2082CD8
:10259000EEDB70BD2DE9F04105460E461746721E72
:1025A000D206110E6A1E5206100EFFF7CDFF002450
:1025B00009E0A7F120019D4A02EB0111085DFFF738
:1025C000B3FF601CC4B2082CF3DB721ED206110EDE
:1025D0006A1E012303EB4202D0B2FFF7B5FF0024CD
:1025E0000BE0A7F12001914A02EB011204F108016E
:1025F000505CFFF799FF601CC4B2082CF1DBBDE80A
:10260000F0812DE9F04107460E461546002407E00B
:102610002A5D3019C1B23846FFF7BCFF601CC4B256
:10262000285D0028F4D1BDE8F08110B502460120F4
:1026300000E050430B00A1F10101FAD110BD2DE9DA
:10264000F04780460E4617461D46002415E0281B1D
:10265000411E0A20FFF7E9FFB7FBF0F00A21B0FBAB
:10266000F1F201FB120000F130093019C1B24A4603
:102670004046FFF78FFF601CC4B2AC42E7DBBDE809
:10268000F0872DE9F0478146884615461E46002D05
:1026900006DB2B2241464846FFF77CFF2F4605E02C
:1026A0002D2241464846FFF775FF6F42002417E090
:1026B000301B411E0A20FFF7B8FFB7FBF0F00A21DC
:1026C000B0FBF1F201FB120000F1300A08EB04004C
:1026D000401CC1B252464846FFF75CFF601CC4B2C2
:1026E000B442E5DBBDE8F0872DE9F04781460E46B0
:1026F00090461F4600241DE0381B411E1020FFF7A6
:1027000094FFB8FBF0F000F00F050A2D08DA05F190
:102710003000C2B23019C1B24846FFF73BFF07E0B4
:1027200005F13700C2B23019C1B24846FFF732FF97
:10273000601CC4B2BC42DFDBBDE8F0872DE9F04786
:1027400080460E4617461D46002412E0281B411EF7
:102750000220FFF76AFFB7FBF0F000F0010000F184
:1027600030093019C1B24A464046FFF713FF601CDA
:10277000C4B2AC42EADBBDE8F08770B5002406E0E5
:10278000002500E06D1CB5F57A7FFBD3641CB4F521
:102790007A7FF5D3FFF740FEAE20FFF7B5FED520D8
:1027A000FFF7B2FE8020FFF7AFFEA820FFF7ACFED8
:1027B0003F20FFF7A9FED320FFF7A6FE0020FFF77A
:1027C000A3FE4020FFF7A0FEA120FFF79DFEC8203A
:1027D000FFF79AFEDA20FFF797FE1220FFF794FE2C
:1027E0008120FFF791FECF20FFF78EFED920FFF763
:1027F0008BFEF120FFF788FEDB20FFF785FE3020FF
:10280000FFF782FEA420FFF77FFEA620FFF77CFEE5
:102810008D20FFF779FE1420FFF776FEAF20FFF73B
:1028200073FEFFF7A2FE70BD000C01405644000885
:1028300008B501210420FEF71FFAF020ADF80000D2
:1028400010208DF8030003208DF802006946F0483F
:10285000FDF756FF08BD10B541F27071ED48FFF766
:102860003BF941F27071EB48FFF738F94021E84835
:10287000FDF7F3FF8021E648FDF7F1FF10BD10B52D
:1028800041F27071E348FFF727F941F27071E148B6
:10289000FFF724F91021DE48FDF7DFFF2021DC4897
:1028A000FDF7DDFF10BD10B541F66411D948FFF703
:1028B00013F941F66411D748FFF710F94021D448C5
:1028C000FDF7CBFF8021D248FDF7C9FF10BD10B541
:1028D00041F66411CF48FFF7FFF841F66411CD4887
:1028E000FFF7FCF81021CA48FDF7B7FF2021C848C0
:1028F000FDF7B5FF10BD10B540F2DC51C548FFF73C
:10290000EBF840F2DC51C348FFF7E8F81021C0486B
:10291000FDF7A3FF2021BE48FDF7A1FF4021BC48E1
:10292000FDF79BFF8021BA48FDF799FF10BD10B558
:10293000B948006800280DDDB748008881B2B54865
:10294000FFF7CAF81021B248FDF787FF2021B048F1
:10295000FDF785FFB048006800280EDAAE48008811
:10296000404281B2AB48FFF7B7F82021A848FDF7F5
:1029700074FF1021A648FDF772FF10BD10B5A748DF
:10298000006800280DDDA548008881B2A148FFF746
:10299000A5F840219E48FDF760FF80219C48FDF787
:1029A0005EFF9E48006800280EDA9C48008840427E
:1029B00081B29848FFF792F880219548FDF74DFFC6
:1029C00040219348FDF74BFF10BD10B500209449FE
:1029D0000860944908609449086012E04FF4487117
:1029E0008F48006800F02EF98B4908608F498D48A8
:1029F000006800F07AF989490860FFF798FFFFF74F
:102A0000BDFF89480068B0F5C87FE7DD0020884930
:102A100008608849086010BD10B500208049086032
:102A2000804908608049086013E0804932317C4861
:102A3000006800F007F97849086040F2EE21794813
:102A4000006800F052F975490860FFF770FFFFF762
:102A500095FF75480068B0F5967FE6DD0020744963
:102A600008607449086010BD10B500206C4908600A
:102A70006C4908606C49086012E040F27C6168486B
:102A8000006800F0DFF8644908606B496548006839
:102A900000F02BF961490860FFF749FFFFF76EFF6F
:102AA00061480068B0F5C87FE7DD00206049086034
:102AB0006049086010BD70B500216048006801F0F1
:102AC00019FB28D25D48006880F00045284601F0D7
:102AD000D9FA84B221464F48FEF7FEFF58480068F5
:102AE00080F00045284601F0CDFA84B221464948DD
:102AF000FEF7F4FF20214648FDF7AFFE10214448C1
:102B0000FDF7ADFE80214248FDF7A7FE4021404879
:102B1000FDF7A5FE21E04948006801F0B3FA84B250
:102B200021463C48FEF7D8FF4548006801F0AAFA64
:102B300084B221463748FEF7D1FF10213448FDF713
:102B40008CFE20213248FDF78AFE40213048FDF7F7
:102B500084FE80212E48FDF782FE70BD70B50021F5
:102B60003648006801F0C6FA14D23448006880F094
:102B70000045284601F086FA84B221462548FEF732
:102B8000ABFF10212248FDF768FE20212048FDF709
:102B900066FE10E02948006801F074FA84B221460C
:102BA0001C48FEF799FF20211948FDF756FE102119
:102BB0001748FDF754FE00212148006801F09AFAF9
:102BC00014D21F48006880F00045284601F05AFAE8
:102BD00084B221460F48FEF781FF40210C48FDF7E3
:102BE0003CFE80210A48FDF73AFE10E014480068D8
:102BF00001F048FA84B221460648FEF76FFF8021B3
:102C00000348FDF72AFE40210148FDF728FE70BD6C
:102C10000008014000040040D4000020D80000203B
:102C2000580000205C00002054000020E0FCFFFF62
:102C3000B8000020BC00002084F9FFFF080000203D
:102C40000C0000202DE9F05F04460D46601BA049F2
:102C50000860A0480068096808449E490860084662
:102C600000689D49884203DD42F21070994908606E
:102C70009848006898494942884202DA974895493D
:102C8000086097498968924A1268964B1B68D21A65
:102C900001FB02F001F016FA81468E48006801F04F
:102CA00011FA83468E484168584601F057FA80462B
:102CB0008B490968864A126801FB02F001F002FAAA
:102CC0008246414601F054F90746494601F050F961
:102CD000064601F0BBF9844908607D4800688149D7
:102CE000086081480068BDE8F09F2DE9F05F044668
:102CF0000D46601B7D4908607D48006809680844EE
:102D00007B490860084600687349884203DD42F247
:102D1000107077490860764800686F4949428842D8
:102D200002DA6E4872490860724989686F4A12680F
:102D3000714B1B68D21A01FB02F001F0C3F9814606
:102D40006B48006801F0BEF983466A4841685846FE
:102D500001F004FA804667490968644A126801FB79
:102D600002F001F0AFF98246414601F001F9074651
:102D7000494601F0FDF8064601F068F95F49086030
:102D80005A4800685C4908605C480068BDE8F09FEC
:102D90002DE9F04104466442204601F093F90546CE
:102DA00057480168284601F0D6FA56490860084697
:102DB00001685548006801F0DBF853490860514844
:102DC0000068524908604F4801685148006801F0A6
:102DD000C5F907464D4801684A48006801F0C6FA3F
:102DE00080464C480168404601F0B8F9064639462D
:102DF00001F0BEF8054648480168284601F0B8F8D9
:102E00004549086045494448006801F073F902D219
:102E100042484149086042493F48006801F06AFA67
:102E200002D23F483C4908603B480068BDE8F08159
:102E30002DE9F04104466442204601F043F905467D
:102E40002F480168284601F086FA3649086008468E
:102E500001683548006801F08BF833490860314853
:102E60000068324908602F4801682948006801F06D
:102E700075F907462D4801682A48006801F076FA7E
:102E8000804624480168404601F068F90646394604
:102E900001F06EF8054626480168284601F068F8FA
:102EA000234908601D492248006801F023F902D235
:102EB0001A481F4908601A491D48006801F01AFAAB
:102EC00002D217481A49086019480068BDE8F08125
:102ED0008000002084000020A0860100F0D8FFFFC1
:102EE0006800002088000020600000208C00002086
:102EF0009000002074000020940000206400002056
:102F00000400002098000020A40000209C00002065
:102F10001400002010000020A000002000409CC5EC
:102F200000409C45A8000020B4000020AC00002018
:102F3000B000002008B501210820FDF79DFE4820C3
:102F40008DF803003820ADF8000003208DF8020052
:102F500069461348FDF7D4FB01210420FDF78CFEE0
:102F600048208DF803004002ADF8000003208DF8E2
:102F7000020069460B48FDF7C3FB01210420FDF761
:102F80007BFE48208DF803004FF48070ADF8000000
:102F900003208DF8020069460248FDF7B1FB08BD29
:102FA000000C01400008014010B50446FE480068CE
:102FB000012812D10020FC490860FFF79CFC00208A
:102FC000FA49086000BF052094FBF0F0F749096852
:102FD0008842F8DA0120F449086010BD10B5F448C1
:102FE000006801282DD10102F248FDF71CFC40BB0E
:102FF0000020EE49086000BFEF480068012803D1B7
:10300000EA480068C828F7DD0020EB490860EB4972
:103010000968EB4A1268881800EBD071E94AB2EBF4
:10302000610F02DCFFF79AFD0BE00220E049086027
:103030000020E2490860E24908604FF47A70FFF727
:10304000B3FFDB48006802280ED1FFF7E5FC032040
:10305000D74908600020D549086001E0FFF77EFDF0
:10306000D24800683228F9DDD1480068032817D11A
:10307000D2490968D24A1268881800EBD071D24A46
:10308000B2EB610F02DCFFF769FD09E00420C849DB
:1030900008600020C9490860C9490860FFF72BFC97
:1030A00000BFC3480068042805D18101C148FDF76D
:1030B000BAFB0028F5D0BE48006804280ED1FFF7FF
:1030C000D3FC0020B949086001E0FFF747FDB7488D
:1030D00000683228F9DD0520B5490860B448006869
:1030E00005281AD1B5490968B54A1268881800EB55
:1030F000D071B54A3232B2EB610F02DCFFF72EFD20
:103100000BE00620AA4908600020AC490860AC49E1
:1031100008604FF4FA70FFF747FFA54800680628DB
:103120000ED1FFF752FC0720A149086000209F49FB
:10313000086001E0FFF712FD9C4800683228F9DDC5
:103140009B480068072816D19C4909689C4A126868
:10315000881800EBD0719B4AE632B2EB610F02DCBB
:10316000FFF7FCFC07E00820914908600020934924
:103170000860934908608E480068082803D1FFF76B
:10318000BAFB00BFFEE74FF400418A48FDF74BFB56
:10319000012806D04FF480518648FDF744FB0128F2
:1031A00001D1FFF76CFB10218848FDF73CFB01289B
:1031B00005D020218548FDF736FB012801D1FFF716
:1031C0004AFB10BD10B57A48006801282DD10102D4
:1031D0007848FDF728FB40BB00207449086000BF19
:1031E00075480068012803D170480068C828F7DDD9
:1031F00000207149086071490968714A126888188D
:1032000000EBD0716F4AB2EB610F02DCFFF7A6FC56
:103210000BE00220664908600020684908606849A0
:1032200008604FF47A70FFF7BFFE6148006802281B
:103230000ED1FFF7CAFB03205D49086000205B49FF
:10324000086001E0FFF78AFC584800683228F9DD81
:1032500057480068032817D158490968584A126826
:10326000881800EBD071584AB2EB610F02DCFFF70F
:1032700075FC09E004204E49086000204F490860B1
:103280004F490860FFF737FB00BF49480068042832
:1032900005D181014748FDF7C6FA0028F5D044481A
:1032A000006804280ED1FFF7DFFB00203F490860CB
:1032B00001E0FFF753FC3D4800683228F9DD0520A6
:1032C0003B4908603A48006805281AD13B4909681B
:1032D0003B4A1268881800EBD0713B4A3232B2EB9D
:1032E000610F02DCFFF73AFC0BE006203049086072
:1032F000002032490860324908604FF4FA70FFF745
:1033000053FE2B48006806280ED1FFF785FB0720E7
:103310002749086000202549086001E0FFF71EFCEE
:10332000224800683228F9DD21480068072816D1B4
:1033300022490968224A1268881800EBD071214A94
:10334000E632B2EB610F02DCFFF708FC07E0082071
:103350001749086000201949086019490860144895
:103360000068082803D1FFF7C6FA00BFFEE74FF454
:1033700000411048FDF757FA012806D04FF480515C
:103380000C48FDF750FA012801D1FFF778FA102117
:103390000E48FDF748FA012805D020210B48FDF71B
:1033A00042FA012816D113E0D0000020540000207A
:1033B000C000002000080140C4000020B800002028
:1033C000BC00002086F2FFFFD2F6FFFF000C014098
:1033D000FFF741FA10BD10B5FE480068012829D159
:1033E0000102FD48FDF71FFA20BB0020FB490860E1
:1033F00000BFFB480068012803D1F8480068C828CE
:10340000F7DD0020F6490860F6490968F64A1268B7
:10341000881800EBD071F54AB2EB610F02DCFFF7C0
:103420009DFB07E00220EB4908600020ED490860A1
:10343000ED490860EE480068012810D1E5480068B1
:1034400002280CD10020EA490860FFF754FA002056
:10345000E249086000BFE1480068C828FBDDDD489C
:10346000006802284ED1E348007831281FD100209F
:10347000E1490860E1490860D849086012E0E04984
:10348000DD480068FFF7DEFBDE4908604FF4487155
:10349000DA480068FFF729FCDB490860FFF747FAC4
:1034A000FFF76CFACD480068FA28E8DD1FE000203D
:1034B000D1490860D1490860C849086013E04FF459
:1034C0006171CD480068FFF7BDFBCE490860CC496B
:1034D0006439CA480068FFF708FCCB490860FFF769
:1034E00026FAFFF74BFABD480068FA28E7DD03200B
:1034F000B84908600020BB490860BB49086001204A
:10350000BB490860BA48006801281AD1B148006870
:10351000032816D10020B6490860FFF7ECF9002017
:10352000AE49086000BFAD480068C828FBDD002038
:10353000AA49086001E0FFF711FBA84800680F28BE
:10354000F9DDA4480068032817D1A6490968A64AEE
:103550001268881800EBD071AC4AB2EB610F02DC44
:10356000FFF7FCFA09E004209A49086000209D4911
:1035700008609D490860FFF7BEF900BF95480068E4
:10358000042805D181019448FDF74DF90028F5D0B4
:103590009048006804280ED1FFF766FA00208F4992
:1035A000086001E0FFF7DAFA8C4800681E28F9DDB0
:1035B00005208849086087480068052815D1894991
:1035C0000968894A1268881800EBD071904AB2EBFA
:1035D000610F02DCFFF7C2FA07E006207D490860B0
:1035E000002080490860804908607A480068062801
:1035F00055D18048007831281FD100207E490860CD
:103600007E4908607549086012E04FF448717A48B5
:103610000068FFF717FB7B49086079497748006825
:10362000FFF763FB78490860FFF781F9FFF7A6F918
:103630006A480068FA28E8DD1EE000206E4908604C
:103640006E4908606549086012E06D496A48006883
:10365000FFF7F8FA6B4908604FF448716748006853
:10366000FFF743FB68490860FFF761F9FFF786F948
:103670005A480068FA28E8DD07205649086000200B
:1036800058490860584908600120594908600020DD
:103690005249086000BF51480068C828FBDD4D480A
:1036A0000068072816D14F4909684F4A12688818E0
:1036B00000EBD0714D4A3232B2EB610F02DCFFF702
:1036C0004DFA07E00820434908600020454908609A
:1036D000454908603F480068082803D1FFF70BF907
:1036E00000BFFEE74FF400413B48FDF79CF801287E
:1036F00001D1FFF7C4F810214648FDF794F80128DE
:1037000001D1FFF7A8F84FF480513348FDF78BF84B
:10371000012801D1FFF7DBF820213E48FDF783F8AF
:10372000012801D1FFF7BFF810BD10B52948006886
:10373000012829D101022848FDF775F820BB002097
:103740002649086000BF26480068012803D12348A5
:103750000068C828F7DD0020214908602149096870
:10376000214A1268881800EBD0712B4AB2EB610F26
:1037700002DCFFF7F3F907E0022016490860002099
:10378000184908601849086019480068012810D1D4
:103790001048006802280CD1002015490860FFF786
:1037A000AAF800200D49086000BF0C480068C8282E
:1037B000FBDD08480068022879D10E4800781749D7
:1037C00008700C480078312846D100200A4908606A
:1037D0000A4925E0C00000200008014054000020F4
:1037E000C4000020B8000020BC000020D2DDFFFF94
:1037F000D0000020DC000020580000205C000020E9
:10380000E0FCFFFFD4000020D800002004F7FFFFF9
:1038100042F5FFFF000C014018CAFFFFCC0000205A
:103820000860FC49086012E0FB49FC480068FFF7AB
:1038300009FAFB49086040F20231FA480068FFF7D4
:1038400054FAF9490860FFF772F8FFF797F8F14862
:103850000068FA28E8DD1FE00020F0490860F1491F
:103860000860EC49086013E04FF44871EB480068C9
:10387000FFF7E8F9EA490860E7491E39E9480068B6
:10388000FFF733FAE8490860FFF751F8FFF776F8D9
:10389000E0480068FA28E7DD0320E44908600020DA
:1038A000E3490860E34908600120E3490860E24811
:1038B000006801281AD1DD480068032816D10020CD
:1038C000DD490860FFF717F80020D249086000BF03
:1038D000D0480068C828FBDD0020CE49086001E020
:1038E000FFF73CF9CB4800680A28F9DDCF480068AB
:1038F000032817D1CE490968CE4A1268881800EB10
:10390000D071CE4AB2EB610F02DCFFF727F909E074
:103910000420C64908600020C5490860C549086000
:10392000FEF7E9FFC4480068012810D1BF480068CD
:1039300004280CD10020C0490860FEF7DCFF0020FD
:10394000B449086000BFB3480068C828FBDDB74829
:103950000068042853D1BA480078BA490860B848CA
:103960000078312820D10020AC490860AD490860BA
:10397000A849086013E0A8490A39A8480068FFF779
:1039800061F9A74908604FF44371A6480068FFF742
:10399000ACF9A5490860FEF7CAFFFEF7EFFF9D48A6
:1039A0000068FA28E7DD1FE000209C4908609D4977
:1039B00008609849086013E04FF448719748006820
:1039C000FFF740F99649086093491E399548006809
:1039D000FFF78BF994490860FEF7A9FFFEF7CEFFC9
:1039E0008C480068FA28E7DD05209049086000202F
:1039F0008F4908608F49086001208F4908608E4810
:103A0000006801281AD189480068052816D10020CD
:103A100089490860FEF76FFF00207E49086000BFFB
:103A20007C480068C828FBDD00207A49086001E076
:103A3000FFF794F8774800680A28F9DD7B480068AA
:103A4000052817D17A4909687A4A1268881800EB64
:103A5000D0717D4AB2EB610F02DCFFF77FF809E01D
:103A600006207249086000207149086071490860A9
:103A7000FEF741FF00BF6D480068062806D14FF4ED
:103A800080717248FCF7CFFE0028F4D067480068C8
:103A900006280ED1FEF7E8FF00205E49086001E02D
:103AA000FFF75CF85B4800681E28F9DD07205F49D6
:103AB00008605E480068072816D15D4909685D4ABC
:103AC0001268881800EBD0715F4ADC3AB2EB610FE4
:103AD00002DCFFF743F807E00820544908600020A3
:103AE00053490860534908605048006808284FD17E
:103AF00054480068312820D10020484908604949CD
:103B000008604449086013E04FF448714348006876
:103B1000FFF798F8424908603F491E39414800685C
:103B2000FFF7E3F840490860FEF701FFFEF726FFC4
:103B300038480068FA28E7DD1FE0002037490860B0
:103B4000384908603349086013E033495039334835
:103B50000068FFF777F83249086040F25231314887
:103B60000068FFF7C2F830490860FEF7E0FEFEF794
:103B700005FF28480068FA28E7DD09202B4908607E
:103B800000202B4908602B49086001202A49086061
:103B900026480068092815D125490968254A126870
:103BA000881800EBD0712A4AB2EB610F02DCFEF7F5
:103BB000D5FF07E00A201D49086000201C49086065
:103BC0001C490860194800680A286FD1214800780C
:103BD000312841D1002011490860124908600D497F
:103BE000086012E040F202310C480068FFF72AF842
:103BF0000B49086008490B480068FFF776F80A4946
:103C00000860FEF794FEFEF7B9FE02480068FA2845
:103C1000E8DD40E054000020FEFCFFFF58000020DB
:103C2000D40000205C000020D8000020C00000204C
:103C3000B8000020BC000020D0000020A6EBFFFF51
:103C4000DC000020C8000020A0F6FFFF00080140B3
:103C500084EAFFFFCC000020002037490860374984
:103C600008603749086012E0364933480068FEF7BB
:103C7000E9FF3549086040F2023130480068FFF73B
:103C800034F832490860FEF752FEFEF777FE2C4802
:103C90000068FA28E8DD0B202D49086000202D4936
:103CA00008602D49086001202C49086028480068F8
:103CB0000B2815D127490968274A1268881800EB94
:103CC000D071274AB2EB610F02DCFEF747FF07E035
:103CD0000C201F49086000201E4908601E4908602A
:103CE0001B4800680C2803D1FEF705FE00BFFEE765
:103CF0004FF400411B48FCF796FD012801D1FEF767
:103D0000BEFD10211848FCF78EFD012801D1FEF7F9
:103D1000A2FD4FF480511348FCF785FD012801D125
:103D2000FEF7D5FD20211048FCF77DFD012801D1CB
:103D3000FEF7B9FD10BD0000580000205C00002017
:103D400054000020FEFCFFFFD4000020D80000201B
:103D5000C0000020B8000020BC000020D0000020DF
:103D600088C8FFFF00080140000C014010B586B074
:103D7000044601210420FCF77FFF01218803FCF7A2
:103D80007BFF18208DF817004FF40070ADF8140079
:103D900003208DF8160005A92C48FCF7B1FC04207F
:103DA0008DF817000002ADF8140003208DF81600FE
:103DB00005A92648FCF7A4FC01218803FCF75CFF59
:103DC00000940020ADF80C000C20ADF80A00002093
:103DD000ADF80800ADF80600ADF8040069461C48CF
:103DE000FDF7FFFE01211A48FDF787FF25208DF81A
:103DF000100001208DF8130000208DF811008DF8BF
:103E0000120004A8FCF7B3FB4FF4E060FCF7AAFB38
:103E1000012240F225510E48FDF77BFF40210C485E
:103E2000FEF753F806B010BD10B520210848FEF784
:103E30003FF8012808D120210548FEF746F804483C
:103E4000FDF7CCFF0349087010BD000000080140D9
:103E500000380140DC00002008B501210420FCF7F7
:103E60000BFF0C20ADF8000048208DF80300032064
:103E70008DF8020069461F48FCF742FC08BD10B5EA
:103E800004211C48FCF7CFFCB8B90F20FEF7A7F8B7
:103E900000BF04211748FCF7C6FC0028F9D00F200A
:103EA000FEF79DF814480068401C13490860084656
:103EB0000068042801D10120086008210D48FCF7A2
:103EC000B2FCB0B90F20FEF78AF800BF08210948FC
:103ED000FCF7A9FC0028F9D00F20FEF780F806486F
:103EE0000068401E044908600846006808B90320BD
:103EF000086010BD000801400000002070477047B6
:103F00007047754600F028F8AE46050069465346EE
:103F100020F00700854618B020B5FCF711FBBDE87E
:103F200020404FF000064FF000074FF000084FF020
:103F3000000B21F00701AC46ACE8C009ACE8C009B1
:103F4000ACE8C009ACE8C0098D4670470446AFF341
:103F500000802046FCF711F900487047E00000207F
:103F600001491820ABBEFEE72600020070470000A2
:103F700090EA010F48BF81F0004100F1FE81421A32
:103F80003CBF801A89184FEAD0524FF07F4C1CEA90
:103F9000410FA2EBD15318BF9CEA026F00F03B80A7
:103FA0004FF0004C4CEA00204CEA012121FA03FCBE
:103FB00010EB0C0C1ED202F1FF325FEA1C2040EB2A
:103FC000C25038BF70471CF07F0F4FEA400C18BF3B
:103FD000BCF17F4F38BF7047C3F12003994008BF41
:103FE00020F00100BCF17F4F38BF7047A0F1C04006
:103FF00000F07BB94FEA3C00000A40EBC25028BFFA
:104000001CF0FF0F4FEA400CE6D018BFBCF17F4F09
:1040100038BF7047EAE79CEA026F05D010EA5C0FF0
:1040200008BF00F00040704710B500F018F900BF5D
:1040300064FBBE3E401058BFC0F14040491058BF1D
:10404000C1F140418142EFF30080704741000B0E07
:10405000D3F19E0208D950F400034FEA032323FA58
:1040600002F048BF4042704710B500F0F8F800BFBA
:1040700049922480002070476FF0004282EA2000BD
:1040800070470000C10DD1F19E0206DB4FEA00230C
:1040900043F0004323FA02F07047004207D54FEA8D
:1040A0004001B1F1FE4F02D24FF00000704710B551
:1040B00000F0D5F849922480002070476FEA200074
:1040C0007047000010F0004148BF4042B0FA80F352
:1040D00010FA03F2C3F19D030BD051EAC35101EB77
:1040E0001220530638BF704700F1010008BF20F0CE
:1040F0000100704750EA010C00F113801CF5000F1D
:1041000058BFBCF5000F01D48842704707D710F59F
:10411000000F58BF11F5000F15D48842704789422F
:1041200070471CF5000F04D5BCF5000FF7D5814290
:1041300070474FF0807C1CEB400F38BF1CEB410FE9
:1041400001D28142704710B500F089F892244900ED
:104150004FF000504FF08051FFF76CBF4FF47F0CD1
:104160001CEAD0121EBF1CEAD11392EA0C0F93EA8C
:104170000C0F00F0478090EA010F48BF42F48072B4
:104180004FF0004C4CEA00204CEA012102EB030204
:10419000A0FB0113A2F50002002918BF43F00103A0
:1041A0005B0028BF4FEA330342EB22425FEA132C45
:1041B0004CEBC2502EBFBCEB436FB2F57C0F704787
:1041C0004FEA036CBCF1004F08BF20F00100B2F5CC
:1041D0007C0F38BF70470BD582F0FF0212F5803F8D
:1041E000C8BF704700F1C040D8BF00F00040704722
:1041F00000F5000C5FEA4C0C48BF7047B0F1C040BE
:1042000000F073B890EA010F0CEAD11348BF42F4F2
:104210008072624538BF634504D280EA010000F035
:104220000040704710B500F01AF800BF8900013E49
:1042300000F007B800F009B85FEA410C5FEA1C6CB7
:1042400008D080EA010000F050B85FEA400C5FEA55
:104250001C6CF6D14FF00040A0F5800070470EF1C5
:10426000020E2EF0030E5EF8044B244204D44FEAF3
:104270004102B2F17F4F11D84FEA4003B3F17F4FB3
:104280000CD80ED14FEAD07CB2F17F4F0CEB4C0C26
:104290000CF1020C08BF4CEBD17C04E04FF0080C91
:1042A00001E04FEAD17C0CEB4C0324FA03F404F058
:1042B0000704B4F1040C06D20EEB840CBDE81040E8
:1042C0004CF0010C6047DFE80CF0070802024FF0E9
:1042D0000040A0F5800010BD0846420018BFD2F192
:1042E000807288BF00F0004010BDFF2141EAD0502D
:1042F000C005704751EA000C00F113801CF5000F57
:1043000058BFBCF5000F01D48142704707D711F5A3
:10431000000F58BF10F5000F15D481427047894235
:1043200070471CF5000F04D5BCF5000FF7D5884287
:1043300070474FF0807C1CEB410F38BF1CEB400FE7
:1043400001D28842704780EA010081EA000180EAD8
:104350000100FFF7F8BE80F0004090EA010F7FF502
:104360000EAE81F0004100F008B8000090EA010FA5
:1043700048BF81F000413FF502AE421A04D882F0F6
:104380000042A0EB020011444FEAD0524FF07F4CA4
:104390001CEA410FA2EBD15318BF9CEA026F4AD02E
:1043A0004FF0004C4CEA00204CEA012121FA03FCBA
:1043B000B0EB0C0C0FD412F0FE0F36D05FEA4C00BD
:1043C0001DD5001240EBC25038BF70471CF03F0FA4
:1043D00018BF70470BE0A2F101025FEA1C2040EB1E
:1043E000C25038BF70471CF07F0F18BF7047C3F131
:1043F0002003994014BF401E20F001007047800840
:104400004FEA122308BF7047B0FA80FCA2EB0C02FF
:10441000CCF1280C60FA0CF093EA122F04BF00EBE9
:10442000C25070474FEAC3707047130A5FEADC104E
:1044300008BF7047F6E79CEA026F04D010EA5C0FF1
:1044400008BF0020704710B5FFF709FF40DFF63EB8
:1044500081F00040704700000000000000000000F4
:10446000000000000000000000F800000000000054
:1044700000333000000000100C06100C0600000095
:1044800000000000000040C07840C0784000043FB9
:1044900004043F040400007088FC08300000001889
:1044A00020FF211E0000F008F000E01800000021AD
:1044B0001C031E211E0000F00888700000001E2151
:1044C00023241927211010160E0000000000000000
:1044D000000000000000000000E0180402000000DE
:1044E00000071820400000020418E000000000400F
:1044F000201807000000404080F080404000020289
:10450000010F01020200000000F0000000000101A4
:10451000011F01010100000000000000000080B048
:10452000700000000000000000000000000000011A
:104530000101010101010000000000000000003045
:1045400030000000000000000000806018040060DF
:1045500018060100000000E010080810E000000F3D
:10456000102020100F00001010F8000000000020A4
:10457000203F2020000000700808088870000030EC
:104580002824222130000030088888483000001894
:10459000202020110E000000C02010F800000007AD
:1045A0000424243F240000F8088888080800001923
:1045B000212020110E0000E0108888180000000F54
:1045C000112020110E0000380808C838080000002B
:1045D000003F000000000070880808887000001C80
:1045E000222121221C0000E010080810E000000039
:1045F000312222110F00000000C0C00000000000A6
:1046000000303000000000000080000000000000CA
:1046100080600000000000008040201008000001C1
:104620000204081020004040404040404000040484
:10463000040404040400000810204080000000204E
:10464000100804020100007048080808F00000008B
:10465000003036010000C030C828E810E00007181C
:10466000272423140B000000C038E0000000203C89
:1046700023020227382008F8888888700000203F2D
:10468000202020110E00C030080808083800071844
:1046900020202010080008F808080810E000203F3B
:1046A000202020100F0008F88888E8081000203F1C
:1046B00020202320180008F88888E8081000203FF0
:1046C000200003000000C030080808380000071868
:1046D0002020221E020008F808000008F808203FE9
:1046E000210101213F20000808F8080800000020EF
:1046F000203F2020000000000808F8080800C080C3
:1047000080807F00000008F888C028180800203F3B
:1047100020012638200008F8080000000000203F93
:1047200020202020300008F8F800F8F80800203F8A
:10473000003F003F200008F830C00008F808203F84
:10474000200007183F00E01008080810E0000F10D4
:10475000202020100F0008F808080808F000203F6B
:10476000210101010000E01008080810E0000F1806
:10477000242438504F0008F8888888887000203F2B
:104780002000030C3020007088080808380000382A
:10479000202121221C00180808F808081800000031
:1047A000203F2000000008F808000008F808001F5B
:1047B000202020201F000878880000C8380800004A
:1047C00007380E010000F80800F80008F800033C64
:1047D0000700073C0300081868808068180820302C
:1047E0002C03032C30200838C800C838080000000B
:1047F000203F2000000010080808C83808002038B2
:10480000262120201800000000FE02020200000005
:10481000007F40404000000C30C00000000000005D
:1048200000010638C00000020202FE000000004045
:1048300040407F000000000004020202040000006B
:104840000000000000000000000000000000808068
:104850008080808080800002020400000000000050
:10486000000000000000000080808080000000192F
:10487000242222223F2008F8008080000000003F10
:10488000112020110E000000008080800000000E2A
:10489000112020201100000000808088F800000E08
:1048A000112020103F200000808080800000001F29
:1048B000222222221300008080F08888881800209D
:1048C000203F202000000000808080808000006B5E
:1048D00094949493600008F8008080800000203F4A
:1048E000210000203F200080989800000000002058
:1048F000203F20200000000000809898000000C0A9
:104900008080807F000008F8000080808000203FC9
:1049100024022D302000000808F8000000000020CC
:10492000203F202000008080808080808000203F09
:1049300020003F20003F8080008080800000203FDA
:10494000210000203F200000808080800000001FA8
:10495000202020201F00808000808000000080FF39
:10496000A12020110E000000008080808000000E39
:10497000112020A0FF808080800080808000202087
:104980003F212000010000008080808080000033F3
:10499000242424241900008080E08080000000008E
:1049A000001F202000008080000000808000001F89
:1049B000202020103F208080800000808080000127
:1049C0000E300806010080800080008080800F305B
:1049D0000C030C300F0000808000808080000020DD
:1049E000312E0E3120008080800000808080808108
:1049F0008E70180601000080808080808000002179
:104A0000302C2221300000000000807C02020000D7
:104A10000000003F404000000000FF0000000000D8
:104A20000000FF0000000002027C80000000004047
:104A3000403F0000000000060101020204040000E3
:104A40000000000000000000684A0008000000208C
:104A5000E000000028010008484B0008E0000020AA
:104A60006006000044010008000000000000004152
:104A700000000000000000000000000000000040F6
:104A800000000000000000000000000000A24A0436
:104A900000000000000000000102030406070809EE
:104AA00000000000010203040102030406070809D4
:104AB00002040608000000000000000000000000E2
:104AC00000000000000000000000000000000000E6
:104AD0009B00000000000000B00400003200000055
:104AE00000000000B0040000000000000000000012
:104AF00000000000000000000000000000000000B6
:104B000000000000000000000000000000000000A5
:104B10000000000000000000000000000000000095
:104B20000000000000000000010000000100000083
:104B30000100000031000000010000000000000042
:084B400000000000300000003D
:04000005080000ED02
:00000001FF
